{
	"": {
		"Bidder": {
			"abi": [
				{
					"constant": true,
					"inputs": [],
					"name": "name",
					"outputs": [
						{
							"name": "",
							"type": "string"
						}
					],
					"payable": false,
					"type": "function",
					"stateMutability": "view"
				},
				{
					"constant": true,
					"inputs": [],
					"name": "bidAmount",
					"outputs": [
						{
							"name": "",
							"type": "uint256"
						}
					],
					"payable": false,
					"type": "function",
					"stateMutability": "view"
				},
				{
					"constant": true,
					"inputs": [],
					"name": "eligible",
					"outputs": [
						{
							"name": "",
							"type": "bool"
						}
					],
					"payable": false,
					"type": "function",
					"stateMutability": "view"
				}
			],
			"evm": {
				"bytecode": {
					"object": "6060604052614e206001600050556101e18061001b6000396000f360606040526000357c01000000000000000000000000000000000000000000000000000000009004806306fdde0314610052578063aec2393b146100d2578063d832d92f146100fa5761004d565b610002565b34610002576100646004805050610124565b60405180806020018281038252838181518152602001915080519060200190808383829060006004602084601f0104600302600f01f150905090810190601f1680156100c45780820380516001836020036101000a031916815260200191505b509250505060405180910390f35b34610002576100e460048050506101c5565b6040518082815260200191505060405180910390f35b346100025761010c60048050506101ce565b60405180821515815260200191505060405180910390f35b60006000508054600181600116156101000203166002900480601f0160208091040260200160405190810160405280929190818152602001828054600181600116156101000203166002900480156101bd5780601f10610192576101008083540402835291602001916101bd565b820191906000526020600020905b8154815290600101906020018083116101a057829003601f168201915b505050505081565b60016000505481565b600260009054906101000a900460ff168156",
					"opcodes": "PUSH1 0x60 PUSH1 0x40 MSTORE PUSH2 0x4E20 PUSH1 0x1 PUSH1 0x0 POP SSTORE PUSH2 0x1E1 DUP1 PUSH2 0x1B PUSH1 0x0 CODECOPY PUSH1 0x0 RETURN PUSH1 0x60 PUSH1 0x40 MSTORE PUSH1 0x0 CALLDATALOAD PUSH29 0x100000000000000000000000000000000000000000000000000000000 SWAP1 DIV DUP1 PUSH4 0x6FDDE03 EQ PUSH2 0x52 JUMPI DUP1 PUSH4 0xAEC2393B EQ PUSH2 0xD2 JUMPI DUP1 PUSH4 0xD832D92F EQ PUSH2 0xFA JUMPI PUSH2 0x4D JUMP JUMPDEST PUSH2 0x2 JUMP JUMPDEST CALLVALUE PUSH2 0x2 JUMPI PUSH2 0x64 PUSH1 0x4 DUP1 POP POP PUSH2 0x124 JUMP JUMPDEST PUSH1 0x40 MLOAD DUP1 DUP1 PUSH1 0x20 ADD DUP3 DUP2 SUB DUP3 MSTORE DUP4 DUP2 DUP2 MLOAD DUP2 MSTORE PUSH1 0x20 ADD SWAP2 POP DUP1 MLOAD SWAP1 PUSH1 0x20 ADD SWAP1 DUP1 DUP4 DUP4 DUP3 SWAP1 PUSH1 0x0 PUSH1 0x4 PUSH1 0x20 DUP5 PUSH1 0x1F ADD DIV PUSH1 0x3 MUL PUSH1 0xF ADD CALL POP SWAP1 POP SWAP1 DUP2 ADD SWAP1 PUSH1 0x1F AND DUP1 ISZERO PUSH2 0xC4 JUMPI DUP1 DUP3 SUB DUP1 MLOAD PUSH1 0x1 DUP4 PUSH1 0x20 SUB PUSH2 0x100 EXP SUB NOT AND DUP2 MSTORE PUSH1 0x20 ADD SWAP2 POP JUMPDEST POP SWAP3 POP POP POP PUSH1 0x40 MLOAD DUP1 SWAP2 SUB SWAP1 RETURN JUMPDEST CALLVALUE PUSH2 0x2 JUMPI PUSH2 0xE4 PUSH1 0x4 DUP1 POP POP PUSH2 0x1C5 JUMP JUMPDEST PUSH1 0x40 MLOAD DUP1 DUP3 DUP2 MSTORE PUSH1 0x20 ADD SWAP2 POP POP PUSH1 0x40 MLOAD DUP1 SWAP2 SUB SWAP1 RETURN JUMPDEST CALLVALUE PUSH2 0x2 JUMPI PUSH2 0x10C PUSH1 0x4 DUP1 POP POP PUSH2 0x1CE JUMP JUMPDEST PUSH1 0x40 MLOAD DUP1 DUP3 ISZERO ISZERO DUP2 MSTORE PUSH1 0x20 ADD SWAP2 POP POP PUSH1 0x40 MLOAD DUP1 SWAP2 SUB SWAP1 RETURN JUMPDEST PUSH1 0x0 PUSH1 0x0 POP DUP1 SLOAD PUSH1 0x1 DUP2 PUSH1 0x1 AND ISZERO PUSH2 0x100 MUL SUB AND PUSH1 0x2 SWAP1 DIV DUP1 PUSH1 0x1F ADD PUSH1 0x20 DUP1 SWAP2 DIV MUL PUSH1 0x20 ADD PUSH1 0x40 MLOAD SWAP1 DUP2 ADD PUSH1 0x40 MSTORE DUP1 SWAP3 SWAP2 SWAP1 DUP2 DUP2 MSTORE PUSH1 0x20 ADD DUP3 DUP1 SLOAD PUSH1 0x1 DUP2 PUSH1 0x1 AND ISZERO PUSH2 0x100 MUL SUB AND PUSH1 0x2 SWAP1 DIV DUP1 ISZERO PUSH2 0x1BD JUMPI DUP1 PUSH1 0x1F LT PUSH2 0x192 JUMPI PUSH2 0x100 DUP1 DUP4 SLOAD DIV MUL DUP4 MSTORE SWAP2 PUSH1 0x20 ADD SWAP2 PUSH2 0x1BD JUMP JUMPDEST DUP3 ADD SWAP2 SWAP1 PUSH1 0x0 MSTORE PUSH1 0x20 PUSH1 0x0 SHA3 SWAP1 JUMPDEST DUP2 SLOAD DUP2 MSTORE SWAP1 PUSH1 0x1 ADD SWAP1 PUSH1 0x20 ADD DUP1 DUP4 GT PUSH2 0x1A0 JUMPI DUP3 SWAP1 SUB PUSH1 0x1F AND DUP3 ADD SWAP2 JUMPDEST POP POP POP POP POP DUP2 JUMP JUMPDEST PUSH1 0x1 PUSH1 0x0 POP SLOAD DUP2 JUMP JUMPDEST PUSH1 0x2 PUSH1 0x0 SWAP1 SLOAD SWAP1 PUSH2 0x100 EXP SWAP1 DIV PUSH1 0xFF AND DUP2 JUMP ",
					"linkReferences": {}
				},
				"methodIdentifiers": {
					"bidAmount()": "aec2393b",
					"eligible()": "d832d92f",
					"name()": "06fdde03"
				},
				"gasEstimates": {
					"creation": {
						"codeDepositCost": "96200",
						"executionCost": "20134"
					},
					"internal": {},
					"external": {
						"bidAmount()": "242",
						"eligible()": "301",
						"name()": "infinite"
					}
				}
			}
		}
	}
}