{
	"contracts/StateTransV2.sol": {
		"StateTransV2": {
			"abi": [
				{
					"constant": false,
					"inputs": [],
					"name": "advanceState",
					"outputs": [],
					"payable": false,
					"stateMutability": "nonpayable",
					"type": "function"
				},
				{
					"constant": true,
					"inputs": [],
					"name": "stage",
					"outputs": [
						{
							"name": "",
							"type": "uint8"
						}
					],
					"payable": false,
					"stateMutability": "view",
					"type": "function"
				},
				{
					"constant": true,
					"inputs": [],
					"name": "timeNow",
					"outputs": [
						{
							"name": "",
							"type": "uint256"
						}
					],
					"payable": false,
					"stateMutability": "view",
					"type": "function"
				},
				{
					"inputs": [],
					"payable": false,
					"stateMutability": "nonpayable",
					"type": "constructor"
				}
			],
			"devdoc": {
				"methods": {}
			},
			"evm": {
				"assembly": "    /* \"contracts/StateTransV2.sol\":27:652  contract StateTransV2{\r... */\n  mstore(0x40, 0x80)\n    /* \"contracts/StateTransV2.sol\":171:264  function StateTransV2() public{\r... */\n  callvalue\n    /* \"--CODEGEN--\":8:17   */\n  dup1\n    /* \"--CODEGEN--\":5:7   */\n  iszero\n  tag_1\n  jumpi\n    /* \"--CODEGEN--\":30:31   */\n  0x0\n    /* \"--CODEGEN--\":27:28   */\n  dup1\n    /* \"--CODEGEN--\":20:32   */\n  revert\n    /* \"--CODEGEN--\":5:7   */\ntag_1:\n    /* \"contracts/StateTransV2.sol\":171:264  function StateTransV2() public{\r... */\n  pop\n    /* \"contracts/StateTransV2.sol\":220:230  Stage.Init */\n  0x0\n    /* \"contracts/StateTransV2.sol\":212:217  stage */\n  dup1\n  0x0\n    /* \"contracts/StateTransV2.sol\":212:230  stage = Stage.Init */\n  0x100\n  exp\n  dup2\n  sload\n  dup2\n  0xff\n  mul\n  not\n  and\n  swap1\n  dup4\n  0x3\n  dup2\n  gt\n  iszero\n  tag_4\n  jumpi\n  invalid\ntag_4:\n  mul\n  or\n  swap1\n  sstore\n  pop\n    /* \"contracts/StateTransV2.sol\":253:256  now */\n  timestamp\n    /* \"contracts/StateTransV2.sol\":241:250  startTime */\n  0x1\n    /* \"contracts/StateTransV2.sol\":241:256  startTime = now */\n  dup2\n  swap1\n  sstore\n  pop\n    /* \"contracts/StateTransV2.sol\":27:652  contract StateTransV2{\r... */\n  dataSize(sub_0)\n  dup1\n  dataOffset(sub_0)\n  0x0\n  codecopy\n  0x0\n  return\nstop\n\nsub_0: assembly {\n        /* \"contracts/StateTransV2.sol\":27:652  contract StateTransV2{\r... */\n      mstore(0x40, 0x80)\n      jumpi(tag_1, lt(calldatasize, 0x4))\n      calldataload(0x0)\n      0x100000000000000000000000000000000000000000000000000000000\n      swap1\n      div\n      0xffffffff\n      and\n      dup1\n      0x84ecdaf6\n      eq\n      tag_2\n      jumpi\n      dup1\n      0xc040e6b8\n      eq\n      tag_3\n      jumpi\n      dup1\n      0xd95660be\n      eq\n      tag_4\n      jumpi\n    tag_1:\n      0x0\n      dup1\n      revert\n        /* \"contracts/StateTransV2.sol\":272:649  function advanceState() public{\r... */\n    tag_2:\n      callvalue\n        /* \"--CODEGEN--\":8:17   */\n      dup1\n        /* \"--CODEGEN--\":5:7   */\n      iszero\n      tag_5\n      jumpi\n        /* \"--CODEGEN--\":30:31   */\n      0x0\n        /* \"--CODEGEN--\":27:28   */\n      dup1\n        /* \"--CODEGEN--\":20:32   */\n      revert\n        /* \"--CODEGEN--\":5:7   */\n    tag_5:\n        /* \"contracts/StateTransV2.sol\":272:649  function advanceState() public{\r... */\n      pop\n      tag_6\n      jump(tag_7)\n    tag_6:\n      stop\n        /* \"contracts/StateTransV2.sol\":97:115  Stage public stage */\n    tag_3:\n      callvalue\n        /* \"--CODEGEN--\":8:17   */\n      dup1\n        /* \"--CODEGEN--\":5:7   */\n      iszero\n      tag_8\n      jumpi\n        /* \"--CODEGEN--\":30:31   */\n      0x0\n        /* \"--CODEGEN--\":27:28   */\n      dup1\n        /* \"--CODEGEN--\":20:32   */\n      revert\n        /* \"--CODEGEN--\":5:7   */\n    tag_8:\n        /* \"contracts/StateTransV2.sol\":97:115  Stage public stage */\n      pop\n      tag_9\n      jump(tag_10)\n    tag_9:\n      mload(0x40)\n      dup1\n      dup3\n      0x3\n      dup2\n      gt\n      iszero\n      tag_11\n      jumpi\n      invalid\n    tag_11:\n      0xff\n      and\n      dup2\n      mstore\n      0x20\n      add\n      swap2\n      pop\n      pop\n      mload(0x40)\n      dup1\n      swap2\n      sub\n      swap1\n      return\n        /* \"contracts/StateTransV2.sol\":143:162  uint public timeNow */\n    tag_4:\n      callvalue\n        /* \"--CODEGEN--\":8:17   */\n      dup1\n        /* \"--CODEGEN--\":5:7   */\n      iszero\n      tag_12\n      jumpi\n        /* \"--CODEGEN--\":30:31   */\n      0x0\n        /* \"--CODEGEN--\":27:28   */\n      dup1\n        /* \"--CODEGEN--\":20:32   */\n      revert\n        /* \"--CODEGEN--\":5:7   */\n    tag_12:\n        /* \"contracts/StateTransV2.sol\":143:162  uint public timeNow */\n      pop\n      tag_13\n      jump(tag_14)\n    tag_13:\n      mload(0x40)\n      dup1\n      dup3\n      dup2\n      mstore\n      0x20\n      add\n      swap2\n      pop\n      pop\n      mload(0x40)\n      dup1\n      swap2\n      sub\n      swap1\n      return\n        /* \"contracts/StateTransV2.sol\":272:649  function advanceState() public{\r... */\n    tag_7:\n        /* \"contracts/StateTransV2.sol\":323:326  now */\n      timestamp\n        /* \"contracts/StateTransV2.sol\":313:320  timeNow */\n      0x2\n        /* \"contracts/StateTransV2.sol\":313:326  timeNow = now */\n      dup2\n      swap1\n      sstore\n      pop\n        /* \"contracts/StateTransV2.sol\":365:375  10 seconds */\n      0xa\n        /* \"contracts/StateTransV2.sol\":355:364  startTime */\n      sload(0x1)\n        /* \"contracts/StateTransV2.sol\":355:375  startTime+10 seconds */\n      add\n        /* \"contracts/StateTransV2.sol\":342:349  timeNow */\n      sload(0x2)\n        /* \"contracts/StateTransV2.sol\":342:376  timeNow >= ( startTime+10 seconds) */\n      lt\n      iszero\n        /* \"contracts/StateTransV2.sol\":337:642  if ( timeNow >= ( startTime+10 seconds)){\r... */\n      iszero\n      tag_16\n      jumpi\n        /* \"contracts/StateTransV2.sol\":404:411  timeNow */\n      sload(0x2)\n        /* \"contracts/StateTransV2.sol\":392:401  startTime */\n      0x1\n        /* \"contracts/StateTransV2.sol\":392:411  startTime = timeNow */\n      dup2\n      swap1\n      sstore\n      pop\n        /* \"contracts/StateTransV2.sol\":438:448  Stage.Init */\n      0x0\n        /* \"contracts/StateTransV2.sol\":429:448  stage == Stage.Init */\n      0x3\n      dup2\n      gt\n      iszero\n      tag_17\n      jumpi\n      invalid\n    tag_17:\n        /* \"contracts/StateTransV2.sol\":429:434  stage */\n      0x0\n      dup1\n      swap1\n      sload\n      swap1\n      0x100\n      exp\n      swap1\n      div\n      0xff\n      and\n        /* \"contracts/StateTransV2.sol\":429:448  stage == Stage.Init */\n      0x3\n      dup2\n      gt\n      iszero\n      tag_18\n      jumpi\n      invalid\n    tag_18:\n      eq\n        /* \"contracts/StateTransV2.sol\":426:477  if(stage == Stage.Init){stage = Stage.Reg; return;} */\n      iszero\n      tag_19\n      jumpi\n        /* \"contracts/StateTransV2.sol\":458:467  Stage.Reg */\n      0x1\n        /* \"contracts/StateTransV2.sol\":450:455  stage */\n      0x0\n      dup1\n        /* \"contracts/StateTransV2.sol\":450:467  stage = Stage.Reg */\n      0x100\n      exp\n      dup2\n      sload\n      dup2\n      0xff\n      mul\n      not\n      and\n      swap1\n      dup4\n      0x3\n      dup2\n      gt\n      iszero\n      tag_20\n      jumpi\n      invalid\n    tag_20:\n      mul\n      or\n      swap1\n      sstore\n      pop\n        /* \"contracts/StateTransV2.sol\":469:476  return; */\n      jump(tag_15)\n        /* \"contracts/StateTransV2.sol\":426:477  if(stage == Stage.Init){stage = Stage.Reg; return;} */\n    tag_19:\n        /* \"contracts/StateTransV2.sol\":503:512  Stage.Reg */\n      0x1\n        /* \"contracts/StateTransV2.sol\":494:512  stage == Stage.Reg */\n      0x3\n      dup2\n      gt\n      iszero\n      tag_21\n      jumpi\n      invalid\n    tag_21:\n        /* \"contracts/StateTransV2.sol\":494:499  stage */\n      0x0\n      dup1\n      swap1\n      sload\n      swap1\n      0x100\n      exp\n      swap1\n      div\n      0xff\n      and\n        /* \"contracts/StateTransV2.sol\":494:512  stage == Stage.Reg */\n      0x3\n      dup2\n      gt\n      iszero\n      tag_22\n      jumpi\n      invalid\n    tag_22:\n      eq\n        /* \"contracts/StateTransV2.sol\":491:543  if(stage == Stage.Reg){ stage = Stage.Vote; return;} */\n      iszero\n      tag_23\n      jumpi\n        /* \"contracts/StateTransV2.sol\":523:533  Stage.Vote */\n      0x2\n        /* \"contracts/StateTransV2.sol\":515:520  stage */\n      0x0\n      dup1\n        /* \"contracts/StateTransV2.sol\":515:533  stage = Stage.Vote */\n      0x100\n      exp\n      dup2\n      sload\n      dup2\n      0xff\n      mul\n      not\n      and\n      swap1\n      dup4\n      0x3\n      dup2\n      gt\n      iszero\n      tag_24\n      jumpi\n      invalid\n    tag_24:\n      mul\n      or\n      swap1\n      sstore\n      pop\n        /* \"contracts/StateTransV2.sol\":535:542  return; */\n      jump(tag_15)\n        /* \"contracts/StateTransV2.sol\":491:543  if(stage == Stage.Reg){ stage = Stage.Vote; return;} */\n    tag_23:\n        /* \"contracts/StateTransV2.sol\":569:579  Stage.Vote */\n      0x2\n        /* \"contracts/StateTransV2.sol\":560:579  stage == Stage.Vote */\n      0x3\n      dup2\n      gt\n      iszero\n      tag_25\n      jumpi\n      invalid\n    tag_25:\n        /* \"contracts/StateTransV2.sol\":560:565  stage */\n      0x0\n      dup1\n      swap1\n      sload\n      swap1\n      0x100\n      exp\n      swap1\n      div\n      0xff\n      and\n        /* \"contracts/StateTransV2.sol\":560:579  stage == Stage.Vote */\n      0x3\n      dup2\n      gt\n      iszero\n      tag_26\n      jumpi\n      invalid\n    tag_26:\n      eq\n        /* \"contracts/StateTransV2.sol\":557:610  if(stage == Stage.Vote){ stage = Stage.Done; return;} */\n      iszero\n      tag_27\n      jumpi\n        /* \"contracts/StateTransV2.sol\":590:600  Stage.Done */\n      0x3\n        /* \"contracts/StateTransV2.sol\":582:587  stage */\n      0x0\n      dup1\n        /* \"contracts/StateTransV2.sol\":582:600  stage = Stage.Done */\n      0x100\n      exp\n      dup2\n      sload\n      dup2\n      0xff\n      mul\n      not\n      and\n      swap1\n      dup4\n      0x3\n      dup2\n      gt\n      iszero\n      tag_28\n      jumpi\n      invalid\n    tag_28:\n      mul\n      or\n      swap1\n      sstore\n      pop\n        /* \"contracts/StateTransV2.sol\":602:609  return; */\n      jump(tag_15)\n        /* \"contracts/StateTransV2.sol\":557:610  if(stage == Stage.Vote){ stage = Stage.Done; return;} */\n    tag_27:\n        /* \"contracts/StateTransV2.sol\":624:631  return; */\n      jump(tag_15)\n        /* \"contracts/StateTransV2.sol\":337:642  if ( timeNow >= ( startTime+10 seconds)){\r... */\n    tag_16:\n        /* \"contracts/StateTransV2.sol\":272:649  function advanceState() public{\r... */\n    tag_15:\n      jump\t// out\n        /* \"contracts/StateTransV2.sol\":97:115  Stage public stage */\n    tag_10:\n      0x0\n      dup1\n      swap1\n      sload\n      swap1\n      0x100\n      exp\n      swap1\n      div\n      0xff\n      and\n      dup2\n      jump\t// out\n        /* \"contracts/StateTransV2.sol\":143:162  uint public timeNow */\n    tag_14:\n      sload(0x2)\n      dup2\n      jump\t// out\n\n    auxdata: 0xa165627a7a723058209f8908fa4b78e32c4182bde9f4a8cb7ea477521a2392da7894f980907fbb58cb0029\n}\n",
				"bytecode": {
					"linkReferences": {},
					"object": "608060405234801561001057600080fd5b5060008060006101000a81548160ff0219169083600381111561002f57fe5b0217905550426001819055506102428061004a6000396000f300608060405260043610610057576000357c0100000000000000000000000000000000000000000000000000000000900463ffffffff16806384ecdaf61461005c578063c040e6b814610073578063d95660be146100ac575b600080fd5b34801561006857600080fd5b506100716100d7565b005b34801561007f57600080fd5b506100886101fe565b6040518082600381111561009857fe5b60ff16815260200191505060405180910390f35b3480156100b857600080fd5b506100c1610210565b6040518082815260200191505060405180910390f35b42600281905550600a600154016002541015156101fb576002546001819055506000600381111561010457fe5b6000809054906101000a900460ff16600381111561011e57fe5b141561014c5760016000806101000a81548160ff0219169083600381111561014257fe5b02179055506101fc565b6001600381111561015957fe5b6000809054906101000a900460ff16600381111561017357fe5b14156101a15760026000806101000a81548160ff0219169083600381111561019757fe5b02179055506101fc565b600260038111156101ae57fe5b6000809054906101000a900460ff1660038111156101c857fe5b14156101f65760036000806101000a81548160ff021916908360038111156101ec57fe5b02179055506101fc565b6101fc565b5b565b6000809054906101000a900460ff1681565b600254815600a165627a7a723058209f8908fa4b78e32c4182bde9f4a8cb7ea477521a2392da7894f980907fbb58cb0029",
					"opcodes": "PUSH1 0x80 PUSH1 0x40 MSTORE CALLVALUE DUP1 ISZERO PUSH2 0x10 JUMPI PUSH1 0x0 DUP1 REVERT JUMPDEST POP PUSH1 0x0 DUP1 PUSH1 0x0 PUSH2 0x100 EXP DUP2 SLOAD DUP2 PUSH1 0xFF MUL NOT AND SWAP1 DUP4 PUSH1 0x3 DUP2 GT ISZERO PUSH2 0x2F JUMPI INVALID JUMPDEST MUL OR SWAP1 SSTORE POP TIMESTAMP PUSH1 0x1 DUP2 SWAP1 SSTORE POP PUSH2 0x242 DUP1 PUSH2 0x4A PUSH1 0x0 CODECOPY PUSH1 0x0 RETURN STOP PUSH1 0x80 PUSH1 0x40 MSTORE PUSH1 0x4 CALLDATASIZE LT PUSH2 0x57 JUMPI PUSH1 0x0 CALLDATALOAD PUSH29 0x100000000000000000000000000000000000000000000000000000000 SWAP1 DIV PUSH4 0xFFFFFFFF AND DUP1 PUSH4 0x84ECDAF6 EQ PUSH2 0x5C JUMPI DUP1 PUSH4 0xC040E6B8 EQ PUSH2 0x73 JUMPI DUP1 PUSH4 0xD95660BE EQ PUSH2 0xAC JUMPI JUMPDEST PUSH1 0x0 DUP1 REVERT JUMPDEST CALLVALUE DUP1 ISZERO PUSH2 0x68 JUMPI PUSH1 0x0 DUP1 REVERT JUMPDEST POP PUSH2 0x71 PUSH2 0xD7 JUMP JUMPDEST STOP JUMPDEST CALLVALUE DUP1 ISZERO PUSH2 0x7F JUMPI PUSH1 0x0 DUP1 REVERT JUMPDEST POP PUSH2 0x88 PUSH2 0x1FE JUMP JUMPDEST PUSH1 0x40 MLOAD DUP1 DUP3 PUSH1 0x3 DUP2 GT ISZERO PUSH2 0x98 JUMPI INVALID JUMPDEST PUSH1 0xFF AND DUP2 MSTORE PUSH1 0x20 ADD SWAP2 POP POP PUSH1 0x40 MLOAD DUP1 SWAP2 SUB SWAP1 RETURN JUMPDEST CALLVALUE DUP1 ISZERO PUSH2 0xB8 JUMPI PUSH1 0x0 DUP1 REVERT JUMPDEST POP PUSH2 0xC1 PUSH2 0x210 JUMP JUMPDEST PUSH1 0x40 MLOAD DUP1 DUP3 DUP2 MSTORE PUSH1 0x20 ADD SWAP2 POP POP PUSH1 0x40 MLOAD DUP1 SWAP2 SUB SWAP1 RETURN JUMPDEST TIMESTAMP PUSH1 0x2 DUP2 SWAP1 SSTORE POP PUSH1 0xA PUSH1 0x1 SLOAD ADD PUSH1 0x2 SLOAD LT ISZERO ISZERO PUSH2 0x1FB JUMPI PUSH1 0x2 SLOAD PUSH1 0x1 DUP2 SWAP1 SSTORE POP PUSH1 0x0 PUSH1 0x3 DUP2 GT ISZERO PUSH2 0x104 JUMPI INVALID JUMPDEST PUSH1 0x0 DUP1 SWAP1 SLOAD SWAP1 PUSH2 0x100 EXP SWAP1 DIV PUSH1 0xFF AND PUSH1 0x3 DUP2 GT ISZERO PUSH2 0x11E JUMPI INVALID JUMPDEST EQ ISZERO PUSH2 0x14C JUMPI PUSH1 0x1 PUSH1 0x0 DUP1 PUSH2 0x100 EXP DUP2 SLOAD DUP2 PUSH1 0xFF MUL NOT AND SWAP1 DUP4 PUSH1 0x3 DUP2 GT ISZERO PUSH2 0x142 JUMPI INVALID JUMPDEST MUL OR SWAP1 SSTORE POP PUSH2 0x1FC JUMP JUMPDEST PUSH1 0x1 PUSH1 0x3 DUP2 GT ISZERO PUSH2 0x159 JUMPI INVALID JUMPDEST PUSH1 0x0 DUP1 SWAP1 SLOAD SWAP1 PUSH2 0x100 EXP SWAP1 DIV PUSH1 0xFF AND PUSH1 0x3 DUP2 GT ISZERO PUSH2 0x173 JUMPI INVALID JUMPDEST EQ ISZERO PUSH2 0x1A1 JUMPI PUSH1 0x2 PUSH1 0x0 DUP1 PUSH2 0x100 EXP DUP2 SLOAD DUP2 PUSH1 0xFF MUL NOT AND SWAP1 DUP4 PUSH1 0x3 DUP2 GT ISZERO PUSH2 0x197 JUMPI INVALID JUMPDEST MUL OR SWAP1 SSTORE POP PUSH2 0x1FC JUMP JUMPDEST PUSH1 0x2 PUSH1 0x3 DUP2 GT ISZERO PUSH2 0x1AE JUMPI INVALID JUMPDEST PUSH1 0x0 DUP1 SWAP1 SLOAD SWAP1 PUSH2 0x100 EXP SWAP1 DIV PUSH1 0xFF AND PUSH1 0x3 DUP2 GT ISZERO PUSH2 0x1C8 JUMPI INVALID JUMPDEST EQ ISZERO PUSH2 0x1F6 JUMPI PUSH1 0x3 PUSH1 0x0 DUP1 PUSH2 0x100 EXP DUP2 SLOAD DUP2 PUSH1 0xFF MUL NOT AND SWAP1 DUP4 PUSH1 0x3 DUP2 GT ISZERO PUSH2 0x1EC JUMPI INVALID JUMPDEST MUL OR SWAP1 SSTORE POP PUSH2 0x1FC JUMP JUMPDEST PUSH2 0x1FC JUMP JUMPDEST JUMPDEST JUMP JUMPDEST PUSH1 0x0 DUP1 SWAP1 SLOAD SWAP1 PUSH2 0x100 EXP SWAP1 DIV PUSH1 0xFF AND DUP2 JUMP JUMPDEST PUSH1 0x2 SLOAD DUP2 JUMP STOP LOG1 PUSH6 0x627A7A723058 KECCAK256 SWAP16 DUP10 ADDMOD STATICCALL 0x4b PUSH25 0xE32C4182BDE9F4A8CB7EA477521A2392DA7894F980907FBB58 0xcb STOP 0x29 "
				},
				"gasEstimates": {
					"creation": {
						"codeDepositCost": "115600",
						"executionCost": "40465",
						"totalCost": "156065"
					},
					"external": {
						"advanceState()": "62034",
						"stage()": "484",
						"timeNow()": "438"
					}
				},
				"methodIdentifiers": {
					"advanceState()": "84ecdaf6",
					"stage()": "c040e6b8",
					"timeNow()": "d95660be"
				}
			},
			"userdoc": {
				"methods": {}
			}
		}
	}
}