{
	"": {
		"Bidder": {
			"abi": [
				{
					"constant": true,
					"inputs": [],
					"name": "name",
					"outputs": [
						{
							"name": "",
							"type": "string"
						}
					],
					"payable": false,
					"type": "function",
					"stateMutability": "view"
				},
				{
					"constant": false,
					"inputs": [
						{
							"name": "amt",
							"type": "uint256"
						}
					],
					"name": "setBidAmt",
					"outputs": [],
					"payable": false,
					"type": "function",
					"stateMutability": "nonpayable"
				},
				{
					"constant": false,
					"inputs": [],
					"name": "determineEligibility",
					"outputs": [],
					"payable": false,
					"type": "function",
					"stateMutability": "nonpayable"
				},
				{
					"constant": true,
					"inputs": [],
					"name": "bidAmount",
					"outputs": [
						{
							"name": "",
							"type": "uint256"
						}
					],
					"payable": false,
					"type": "function",
					"stateMutability": "view"
				},
				{
					"constant": false,
					"inputs": [
						{
							"name": "n",
							"type": "string"
						}
					],
					"name": "setName",
					"outputs": [],
					"payable": false,
					"type": "function",
					"stateMutability": "nonpayable"
				},
				{
					"constant": true,
					"inputs": [],
					"name": "eligible",
					"outputs": [
						{
							"name": "",
							"type": "bool"
						}
					],
					"payable": false,
					"type": "function",
					"stateMutability": "view"
				}
			],
			"evm": {
				"bytecode": {
					"object": "6060604052604060405190810160405280600781526020017f62756666616c6f0000000000000000000000000000000000000000000000000081526020015060006000509080519060200190828054600181600116156101000203166002900490600052602060002090601f016020900481019282601f10608a57805160ff191683800117855560b8565b8280016001018555821560b8579182015b8281111560b7578251826000505591602001919060010190609b565b5b50905060df919060c3565b8082111560db576000818150600090555060010160c3565b5090565b5050614e2060016000505561039e806100f86000396000f360606040523615610074576000357c01000000000000000000000000000000000000000000000000000000009004806306fdde031461007957806375229d2c146100f957806396895a7714610116578063aec2393b1461012a578063c47f002714610152578063d832d92f146101ad57610074565b610002565b346100025761008b60048050506101d7565b60405180806020018281038252838181518152602001915080519060200190808383829060006004602084601f0104600302600f01f150905090810190601f1680156100eb5780820380516001836020036101000a031916815260200191505b509250505060405180910390f35b34610002576101146004808035906020019091905050610278565b005b34610002576101286004805050610286565b005b346100025761013c60048050506102d1565b6040518082815260200191505060405180910390f35b34610002576101ab6004808035906020019082018035906020019191908080601f0160208091040260200160405190810160405280939291908181526020018383808284378201915050505050509090919050506102da565b005b34610002576101bf600480505061038b565b60405180821515815260200191505060405180910390f35b60006000508054600181600116156101000203166002900480601f0160208091040260200160405190810160405280929190818152602001828054600181600116156101000203166002900480156102705780601f1061024557610100808354040283529160200191610270565b820191906000526020600020905b81548152906001019060200180831161025357829003601f168201915b505050505081565b806001600050819055505b50565b6103e86001600050541015156102b4576001600260006101000a81548160ff021916908302179055506102ce565b6000600260006101000a81548160ff021916908302179055505b5b565b60016000505481565b8060006000509080519060200190828054600181600116156101000203166002900490600052602060002090601f016020900481019282601f1061032957805160ff191683800117855561035a565b8280016001018555821561035a579182015b8281111561035957825182600050559160200191906001019061033b565b5b5090506103859190610367565b808211156103815760008181506000905550600101610367565b5090565b50505b50565b600260009054906101000a900460ff168156",
					"opcodes": "PUSH1 0x60 PUSH1 0x40 MSTORE PUSH1 0x40 PUSH1 0x40 MLOAD SWAP1 DUP2 ADD PUSH1 0x40 MSTORE DUP1 PUSH1 0x7 DUP2 MSTORE PUSH1 0x20 ADD PUSH32 0x62756666616C6F00000000000000000000000000000000000000000000000000 DUP2 MSTORE PUSH1 0x20 ADD POP PUSH1 0x0 PUSH1 0x0 POP SWAP1 DUP1 MLOAD SWAP1 PUSH1 0x20 ADD SWAP1 DUP3 DUP1 SLOAD PUSH1 0x1 DUP2 PUSH1 0x1 AND ISZERO PUSH2 0x100 MUL SUB AND PUSH1 0x2 SWAP1 DIV SWAP1 PUSH1 0x0 MSTORE PUSH1 0x20 PUSH1 0x0 SHA3 SWAP1 PUSH1 0x1F ADD PUSH1 0x20 SWAP1 DIV DUP2 ADD SWAP3 DUP3 PUSH1 0x1F LT PUSH1 0x8A JUMPI DUP1 MLOAD PUSH1 0xFF NOT AND DUP4 DUP1 ADD OR DUP6 SSTORE PUSH1 0xB8 JUMP JUMPDEST DUP3 DUP1 ADD PUSH1 0x1 ADD DUP6 SSTORE DUP3 ISZERO PUSH1 0xB8 JUMPI SWAP2 DUP3 ADD JUMPDEST DUP3 DUP2 GT ISZERO PUSH1 0xB7 JUMPI DUP3 MLOAD DUP3 PUSH1 0x0 POP SSTORE SWAP2 PUSH1 0x20 ADD SWAP2 SWAP1 PUSH1 0x1 ADD SWAP1 PUSH1 0x9B JUMP JUMPDEST JUMPDEST POP SWAP1 POP PUSH1 0xDF SWAP2 SWAP1 PUSH1 0xC3 JUMP JUMPDEST DUP1 DUP3 GT ISZERO PUSH1 0xDB JUMPI PUSH1 0x0 DUP2 DUP2 POP PUSH1 0x0 SWAP1 SSTORE POP PUSH1 0x1 ADD PUSH1 0xC3 JUMP JUMPDEST POP SWAP1 JUMP JUMPDEST POP POP PUSH2 0x4E20 PUSH1 0x1 PUSH1 0x0 POP SSTORE PUSH2 0x39E DUP1 PUSH2 0xF8 PUSH1 0x0 CODECOPY PUSH1 0x0 RETURN PUSH1 0x60 PUSH1 0x40 MSTORE CALLDATASIZE ISZERO PUSH2 0x74 JUMPI PUSH1 0x0 CALLDATALOAD PUSH29 0x100000000000000000000000000000000000000000000000000000000 SWAP1 DIV DUP1 PUSH4 0x6FDDE03 EQ PUSH2 0x79 JUMPI DUP1 PUSH4 0x75229D2C EQ PUSH2 0xF9 JUMPI DUP1 PUSH4 0x96895A77 EQ PUSH2 0x116 JUMPI DUP1 PUSH4 0xAEC2393B EQ PUSH2 0x12A JUMPI DUP1 PUSH4 0xC47F0027 EQ PUSH2 0x152 JUMPI DUP1 PUSH4 0xD832D92F EQ PUSH2 0x1AD JUMPI PUSH2 0x74 JUMP JUMPDEST PUSH2 0x2 JUMP JUMPDEST CALLVALUE PUSH2 0x2 JUMPI PUSH2 0x8B PUSH1 0x4 DUP1 POP POP PUSH2 0x1D7 JUMP JUMPDEST PUSH1 0x40 MLOAD DUP1 DUP1 PUSH1 0x20 ADD DUP3 DUP2 SUB DUP3 MSTORE DUP4 DUP2 DUP2 MLOAD DUP2 MSTORE PUSH1 0x20 ADD SWAP2 POP DUP1 MLOAD SWAP1 PUSH1 0x20 ADD SWAP1 DUP1 DUP4 DUP4 DUP3 SWAP1 PUSH1 0x0 PUSH1 0x4 PUSH1 0x20 DUP5 PUSH1 0x1F ADD DIV PUSH1 0x3 MUL PUSH1 0xF ADD CALL POP SWAP1 POP SWAP1 DUP2 ADD SWAP1 PUSH1 0x1F AND DUP1 ISZERO PUSH2 0xEB JUMPI DUP1 DUP3 SUB DUP1 MLOAD PUSH1 0x1 DUP4 PUSH1 0x20 SUB PUSH2 0x100 EXP SUB NOT AND DUP2 MSTORE PUSH1 0x20 ADD SWAP2 POP JUMPDEST POP SWAP3 POP POP POP PUSH1 0x40 MLOAD DUP1 SWAP2 SUB SWAP1 RETURN JUMPDEST CALLVALUE PUSH2 0x2 JUMPI PUSH2 0x114 PUSH1 0x4 DUP1 DUP1 CALLDATALOAD SWAP1 PUSH1 0x20 ADD SWAP1 SWAP2 SWAP1 POP POP PUSH2 0x278 JUMP JUMPDEST STOP JUMPDEST CALLVALUE PUSH2 0x2 JUMPI PUSH2 0x128 PUSH1 0x4 DUP1 POP POP PUSH2 0x286 JUMP JUMPDEST STOP JUMPDEST CALLVALUE PUSH2 0x2 JUMPI PUSH2 0x13C PUSH1 0x4 DUP1 POP POP PUSH2 0x2D1 JUMP JUMPDEST PUSH1 0x40 MLOAD DUP1 DUP3 DUP2 MSTORE PUSH1 0x20 ADD SWAP2 POP POP PUSH1 0x40 MLOAD DUP1 SWAP2 SUB SWAP1 RETURN JUMPDEST CALLVALUE PUSH2 0x2 JUMPI PUSH2 0x1AB PUSH1 0x4 DUP1 DUP1 CALLDATALOAD SWAP1 PUSH1 0x20 ADD SWAP1 DUP3 ADD DUP1 CALLDATALOAD SWAP1 PUSH1 0x20 ADD SWAP2 SWAP2 SWAP1 DUP1 DUP1 PUSH1 0x1F ADD PUSH1 0x20 DUP1 SWAP2 DIV MUL PUSH1 0x20 ADD PUSH1 0x40 MLOAD SWAP1 DUP2 ADD PUSH1 0x40 MSTORE DUP1 SWAP4 SWAP3 SWAP2 SWAP1 DUP2 DUP2 MSTORE PUSH1 0x20 ADD DUP4 DUP4 DUP1 DUP3 DUP5 CALLDATACOPY DUP3 ADD SWAP2 POP POP POP POP POP POP SWAP1 SWAP1 SWAP2 SWAP1 POP POP PUSH2 0x2DA JUMP JUMPDEST STOP JUMPDEST CALLVALUE PUSH2 0x2 JUMPI PUSH2 0x1BF PUSH1 0x4 DUP1 POP POP PUSH2 0x38B JUMP JUMPDEST PUSH1 0x40 MLOAD DUP1 DUP3 ISZERO ISZERO DUP2 MSTORE PUSH1 0x20 ADD SWAP2 POP POP PUSH1 0x40 MLOAD DUP1 SWAP2 SUB SWAP1 RETURN JUMPDEST PUSH1 0x0 PUSH1 0x0 POP DUP1 SLOAD PUSH1 0x1 DUP2 PUSH1 0x1 AND ISZERO PUSH2 0x100 MUL SUB AND PUSH1 0x2 SWAP1 DIV DUP1 PUSH1 0x1F ADD PUSH1 0x20 DUP1 SWAP2 DIV MUL PUSH1 0x20 ADD PUSH1 0x40 MLOAD SWAP1 DUP2 ADD PUSH1 0x40 MSTORE DUP1 SWAP3 SWAP2 SWAP1 DUP2 DUP2 MSTORE PUSH1 0x20 ADD DUP3 DUP1 SLOAD PUSH1 0x1 DUP2 PUSH1 0x1 AND ISZERO PUSH2 0x100 MUL SUB AND PUSH1 0x2 SWAP1 DIV DUP1 ISZERO PUSH2 0x270 JUMPI DUP1 PUSH1 0x1F LT PUSH2 0x245 JUMPI PUSH2 0x100 DUP1 DUP4 SLOAD DIV MUL DUP4 MSTORE SWAP2 PUSH1 0x20 ADD SWAP2 PUSH2 0x270 JUMP JUMPDEST DUP3 ADD SWAP2 SWAP1 PUSH1 0x0 MSTORE PUSH1 0x20 PUSH1 0x0 SHA3 SWAP1 JUMPDEST DUP2 SLOAD DUP2 MSTORE SWAP1 PUSH1 0x1 ADD SWAP1 PUSH1 0x20 ADD DUP1 DUP4 GT PUSH2 0x253 JUMPI DUP3 SWAP1 SUB PUSH1 0x1F AND DUP3 ADD SWAP2 JUMPDEST POP POP POP POP POP DUP2 JUMP JUMPDEST DUP1 PUSH1 0x1 PUSH1 0x0 POP DUP2 SWAP1 SSTORE POP JUMPDEST POP JUMP JUMPDEST PUSH2 0x3E8 PUSH1 0x1 PUSH1 0x0 POP SLOAD LT ISZERO ISZERO PUSH2 0x2B4 JUMPI PUSH1 0x1 PUSH1 0x2 PUSH1 0x0 PUSH2 0x100 EXP DUP2 SLOAD DUP2 PUSH1 0xFF MUL NOT AND SWAP1 DUP4 MUL OR SWAP1 SSTORE POP PUSH2 0x2CE JUMP JUMPDEST PUSH1 0x0 PUSH1 0x2 PUSH1 0x0 PUSH2 0x100 EXP DUP2 SLOAD DUP2 PUSH1 0xFF MUL NOT AND SWAP1 DUP4 MUL OR SWAP1 SSTORE POP JUMPDEST JUMPDEST JUMP JUMPDEST PUSH1 0x1 PUSH1 0x0 POP SLOAD DUP2 JUMP JUMPDEST DUP1 PUSH1 0x0 PUSH1 0x0 POP SWAP1 DUP1 MLOAD SWAP1 PUSH1 0x20 ADD SWAP1 DUP3 DUP1 SLOAD PUSH1 0x1 DUP2 PUSH1 0x1 AND ISZERO PUSH2 0x100 MUL SUB AND PUSH1 0x2 SWAP1 DIV SWAP1 PUSH1 0x0 MSTORE PUSH1 0x20 PUSH1 0x0 SHA3 SWAP1 PUSH1 0x1F ADD PUSH1 0x20 SWAP1 DIV DUP2 ADD SWAP3 DUP3 PUSH1 0x1F LT PUSH2 0x329 JUMPI DUP1 MLOAD PUSH1 0xFF NOT AND DUP4 DUP1 ADD OR DUP6 SSTORE PUSH2 0x35A JUMP JUMPDEST DUP3 DUP1 ADD PUSH1 0x1 ADD DUP6 SSTORE DUP3 ISZERO PUSH2 0x35A JUMPI SWAP2 DUP3 ADD JUMPDEST DUP3 DUP2 GT ISZERO PUSH2 0x359 JUMPI DUP3 MLOAD DUP3 PUSH1 0x0 POP SSTORE SWAP2 PUSH1 0x20 ADD SWAP2 SWAP1 PUSH1 0x1 ADD SWAP1 PUSH2 0x33B JUMP JUMPDEST JUMPDEST POP SWAP1 POP PUSH2 0x385 SWAP2 SWAP1 PUSH2 0x367 JUMP JUMPDEST DUP1 DUP3 GT ISZERO PUSH2 0x381 JUMPI PUSH1 0x0 DUP2 DUP2 POP PUSH1 0x0 SWAP1 SSTORE POP PUSH1 0x1 ADD PUSH2 0x367 JUMP JUMPDEST POP SWAP1 JUMP JUMPDEST POP POP JUMPDEST POP JUMP JUMPDEST PUSH1 0x2 PUSH1 0x0 SWAP1 SLOAD SWAP1 PUSH2 0x100 EXP SWAP1 DIV PUSH1 0xFF AND DUP2 JUMP ",
					"linkReferences": {}
				},
				"methodIdentifiers": {
					"bidAmount()": "aec2393b",
					"determineEligibility()": "96895a77",
					"eligible()": "d832d92f",
					"name()": "06fdde03",
					"setBidAmt(uint256)": "75229d2c",
					"setName(string)": "c47f0027"
				},
				"gasEstimates": {
					"creation": {
						"codeDepositCost": "185200",
						"executionCost": "infinite"
					},
					"internal": {},
					"external": {
						"bidAmount()": "304",
						"determineEligibility()": "20376",
						"eligible()": "385",
						"name()": "infinite",
						"setBidAmt(uint256)": "20193",
						"setName(string)": "infinite"
					}
				}
			}
		}
	}
}